{
  "transactions": [
    {
      "hash": "0xf86b554195a6dc2c46173fe09221de9bd219ef1b517b15821374e3065e7ae332",
      "transactionType": "CALL",
      "contractName": "StrategyManager",
      "contractAddress": "0x126409a7dd1cf34004e1a1bfd416eb666cd0351f",
      "function": "addStrategy(address,string,uint256)",
      "arguments": [
        "0x45413dC90Bcb5CCa3550E0d931A5c512c2dB7a3c",
        "Octant Yield Donating",
        "2000"
      ],
      "transaction": {
        "from": "0x3b0eb4bd67d7243a4dbe684e9c922d9c3919afbf",
        "to": "0x126409a7dd1cf34004e1a1bfd416eb666cd0351f",
        "gas": "0x375a9",
        "value": "0x0",
        "input": "0x26988bc500000000000000000000000045413dc90bcb5cca3550e0d931a5c512c2db7a3c000000000000000000000000000000000000000000000000000000000000006000000000000000000000000000000000000000000000000000000000000007d000000000000000000000000000000000000000000000000000000000000000154f6374616e74205969656c6420446f6e6174696e670000000000000000000000",
        "nonce": "0x8a",
        "chainId": "0xaa36a7"
      },
      "additionalContracts": [],
      "isFixedGasLimit": false
    }
  ],
  "receipts": [
    {
      "status": "0x1",
      "cumulativeGasUsed": "0xa2456e",
      "logs": [
        {
          "address": "0x126409a7dd1cf34004e1a1bfd416eb666cd0351f",
          "topics": [
            "0x2243e9807d404cc49e42b20e4cf67c6df38a0ed54ca5e11bc9502e7af133c84b",
            "0x0000000000000000000000000000000000000000000000000000000000000000"
          ],
          "data": "0x00000000000000000000000045413dc90bcb5cca3550e0d931a5c512c2db7a3c000000000000000000000000000000000000000000000000000000000000006000000000000000000000000000000000000000000000000000000000000007d000000000000000000000000000000000000000000000000000000000000000154f6374616e74205969656c6420446f6e6174696e670000000000000000000000",
          "blockHash": "0xe9cd51ac9f19db4e104129df027c3dc3cb9eceda3a53819a06d8b4b0124457f2",
          "blockNumber": "0x922539",
          "blockTimestamp": "0x690d926c",
          "transactionHash": "0xf86b554195a6dc2c46173fe09221de9bd219ef1b517b15821374e3065e7ae332",
          "transactionIndex": "0x54",
          "logIndex": "0x47",
          "removed": false
        }
      ],
      "logsBloom": "0x00000000000000000000000000000000000000000000000000000000000000000000000000000000000000000000000000800000000000000000000000000000000000000000000000000000000000000000000000000000000000000000000000000000020000000000000000000880000000000000000000000000000000000000000000000800000000000000000020000000000000000000000000000000000000000000000000000000000000000000000000000000000000000000000000000000000000000000000000000000000000000000000000000000000020000000080000000000000000000000000000000000000000000000400000000000",
      "type": "0x2",
      "transactionHash": "0xf86b554195a6dc2c46173fe09221de9bd219ef1b517b15821374e3065e7ae332",
      "transactionIndex": "0x54",
      "blockHash": "0xe9cd51ac9f19db4e104129df027c3dc3cb9eceda3a53819a06d8b4b0124457f2",
      "blockNumber": "0x922539",
      "gasUsed": "0x28134",
      "effectiveGasPrice": "0xf424a",
      "from": "0x3b0eb4bd67d7243a4dbe684e9c922d9c3919afbf",
      "to": "0x126409a7dd1cf34004e1a1bfd416eb666cd0351f",
      "contractAddress": null
    }
  ],
  "libraries": [],
  "pending": [],
  "returns": {},
  "timestamp": 1762497133355,
  "chain": 11155111,
  "commit": "7516bda"
}